{
  "contractName": "LandRecord",
  "abi": [
    {
      "inputs": [],
      "stateMutability": "nonpayable",
      "type": "constructor"
    },
    {
      "anonymous": false,
      "inputs": [
        {
          "indexed": true,
          "internalType": "uint256",
          "name": "recordId",
          "type": "uint256"
        },
        {
          "indexed": false,
          "internalType": "string",
          "name": "documentHash",
          "type": "string"
        },
        {
          "indexed": false,
          "internalType": "address",
          "name": "owner",
          "type": "address"
        },
        {
          "indexed": false,
          "internalType": "uint256",
          "name": "timestamp",
          "type": "uint256"
        }
      ],
      "name": "RecordCreated",
      "type": "event"
    },
    {
      "anonymous": false,
      "inputs": [
        {
          "indexed": true,
          "internalType": "uint256",
          "name": "recordId",
          "type": "uint256"
        },
        {
          "indexed": false,
          "internalType": "address",
          "name": "owner",
          "type": "address"
        },
        {
          "indexed": false,
          "internalType": "bytes",
          "name": "signature",
          "type": "bytes"
        }
      ],
      "name": "RecordSigned",
      "type": "event"
    },
    {
      "anonymous": false,
      "inputs": [
        {
          "indexed": true,
          "internalType": "uint256",
          "name": "recordId",
          "type": "uint256"
        },
        {
          "indexed": false,
          "internalType": "address",
          "name": "admin",
          "type": "address"
        }
      ],
      "name": "RecordVerified",
      "type": "event"
    },
    {
      "inputs": [],
      "name": "admin",
      "outputs": [
        {
          "internalType": "address",
          "name": "",
          "type": "address"
        }
      ],
      "stateMutability": "view",
      "type": "function"
    },
    {
      "inputs": [
        {
          "internalType": "uint256",
          "name": "",
          "type": "uint256"
        }
      ],
      "name": "landRecords",
      "outputs": [
        {
          "internalType": "string",
          "name": "documentHash",
          "type": "string"
        },
        {
          "internalType": "address",
          "name": "owner",
          "type": "address"
        },
        {
          "internalType": "uint256",
          "name": "timestamp",
          "type": "uint256"
        },
        {
          "internalType": "bool",
          "name": "isVerified",
          "type": "bool"
        }
      ],
      "stateMutability": "view",
      "type": "function"
    },
    {
      "inputs": [
        {
          "internalType": "uint256",
          "name": "",
          "type": "uint256"
        }
      ],
      "name": "signatures",
      "outputs": [
        {
          "internalType": "bytes",
          "name": "",
          "type": "bytes"
        }
      ],
      "stateMutability": "view",
      "type": "function"
    },
    {
      "inputs": [
        {
          "internalType": "string",
          "name": "_documentHash",
          "type": "string"
        },
        {
          "internalType": "address",
          "name": "_owner",
          "type": "address"
        }
      ],
      "name": "createRecord",
      "outputs": [
        {
          "internalType": "uint256",
          "name": "",
          "type": "uint256"
        }
      ],
      "stateMutability": "nonpayable",
      "type": "function"
    },
    {
      "inputs": [
        {
          "internalType": "uint256",
          "name": "_recordId",
          "type": "uint256"
        }
      ],
      "name": "getRecord",
      "outputs": [
        {
          "components": [
            {
              "internalType": "string",
              "name": "documentHash",
              "type": "string"
            },
            {
              "internalType": "address",
              "name": "owner",
              "type": "address"
            },
            {
              "internalType": "uint256",
              "name": "timestamp",
              "type": "uint256"
            },
            {
              "internalType": "bool",
              "name": "isVerified",
              "type": "bool"
            }
          ],
          "internalType": "struct LandRecord.LandRecordStruct",
          "name": "",
          "type": "tuple"
        }
      ],
      "stateMutability": "view",
      "type": "function"
    },
    {
      "inputs": [],
      "name": "getRecordCount",
      "outputs": [
        {
          "internalType": "uint256",
          "name": "",
          "type": "uint256"
        }
      ],
      "stateMutability": "view",
      "type": "function"
    },
    {
      "inputs": [
        {
          "internalType": "uint256",
          "name": "_recordId",
          "type": "uint256"
        },
        {
          "internalType": "bytes",
          "name": "_signature",
          "type": "bytes"
        }
      ],
      "name": "signRecord",
      "outputs": [],
      "stateMutability": "nonpayable",
      "type": "function"
    },
    {
      "inputs": [
        {
          "internalType": "uint256",
          "name": "_recordId",
          "type": "uint256"
        }
      ],
      "name": "getSignature",
      "outputs": [
        {
          "internalType": "bytes",
          "name": "",
          "type": "bytes"
        }
      ],
      "stateMutability": "view",
      "type": "function"
    },
    {
      "inputs": [
        {
          "internalType": "uint256",
          "name": "_recordId",
          "type": "uint256"
        },
        {
          "internalType": "bytes32",
          "name": "_messageHash",
          "type": "bytes32"
        },
        {
          "internalType": "bytes",
          "name": "_signature",
          "type": "bytes"
        }
      ],
      "name": "verifySignature",
      "outputs": [
        {
          "internalType": "bool",
          "name": "",
          "type": "bool"
        }
      ],
      "stateMutability": "view",
      "type": "function"
    },
    {
      "inputs": [
        {
          "internalType": "uint256",
          "name": "_recordId",
          "type": "uint256"
        },
        {
          "internalType": "bytes32",
          "name": "_messageHash",
          "type": "bytes32"
        },
        {
          "internalType": "bytes",
          "name": "_signature",
          "type": "bytes"
        }
      ],
      "name": "verifyRecord",
      "outputs": [],
      "stateMutability": "nonpayable",
      "type": "function"
    }
  ],
  "bytecode": "0x608060405234801561001057600080fd5b5033600260006101000a81548173ffffffffffffffffffffffffffffffffffffffff021916908373ffffffffffffffffffffffffffffffffffffffff160217905550611910806100616000396000f3fe608060405234801561001057600080fd5b506004361061009e5760003560e01c806354dbdb241161006657806354dbdb241461017f5780638be101941461019b578063c232b83a146101cb578063ca267f28146101fe578063f851a4401461021c5761009e565b806302a569e6146100a357806303e9e609146100d357806305a73a39146101035780632f81b15d1461013357806333ffac0314610163575b600080fd5b6100bd60048036038101906100b8919061101c565b61023a565b6040516100ca91906114f0565b60405180910390f35b6100ed60048036038101906100e8919061101c565b610326565b6040516100fa919061163c565b60405180910390f35b61011d60048036038101906101189190610fc8565b6104dc565b60405161012a919061165e565b60405180910390f35b61014d60048036038101906101489190611045565b610628565b60405161015a9190611490565b60405180910390f35b61017d60048036038101906101789190611045565b6107d0565b005b610199600480360381019061019491906110ac565b610992565b005b6101b560048036038101906101b0919061101c565b610b3f565b6040516101c291906114f0565b60405180910390f35b6101e560048036038101906101e0919061101c565b610bdf565b6040516101f59493929190611550565b60405180910390f35b610206610cd4565b604051610213919061165e565b60405180910390f35b610224610ce0565b6040516102319190611443565b60405180910390f35b60606000805490508210610283576040517f08c379a000000000000000000000000000000000000000000000000000000000815260040161027a906115dc565b60405180910390fd5b6001600083815260200190815260200160002080546102a1906117f4565b80601f01602080910402602001604051908101604052809291908181526020018280546102cd906117f4565b801561031a5780601f106102ef5761010080835404028352916020019161031a565b820191906000526020600020905b8154815290600101906020018083116102fd57829003601f168201915b50505050509050919050565b61032e610d06565b6000805490508210610375576040517f08c379a000000000000000000000000000000000000000000000000000000000815260040161036c906115dc565b60405180910390fd5b600082815481106103af577f4e487b7100000000000000000000000000000000000000000000000000000000600052603260045260246000fd5b90600052602060002090600402016040518060800160405290816000820180546103d8906117f4565b80601f0160208091040260200160405190810160405280929190818152602001828054610404906117f4565b80156104515780601f1061042657610100808354040283529160200191610451565b820191906000526020600020905b81548152906001019060200180831161043457829003601f168201915b505050505081526020016001820160009054906101000a900473ffffffffffffffffffffffffffffffffffffffff1673ffffffffffffffffffffffffffffffffffffffff1673ffffffffffffffffffffffffffffffffffffffff168152602001600282015481526020016003820160009054906101000a900460ff1615151515815250509050919050565b6000806000805490509050600060405180608001604052808681526020018573ffffffffffffffffffffffffffffffffffffffff1681526020014281526020016000151581525090506000819080600181540180825580915050600190039060005260206000209060040201600090919091909150600082015181600001908051906020019061056d929190610d46565b5060208201518160010160006101000a81548173ffffffffffffffffffffffffffffffffffffffff021916908373ffffffffffffffffffffffffffffffffffffffff1602179055506040820151816002015560608201518160030160006101000a81548160ff0219169083151502179055505050817f4d417c2c62107bd3821a369e948bfb10fe7edb44fca388007ab3b79e4da4c0f886864260405161061593929190611512565b60405180910390a2819250505092915050565b600080805490508410610670576040517f08c379a0000000000000000000000000000000000000000000000000000000008152600401610667906115dc565b60405180910390fd5b60008085815481106106ab577f4e487b7100000000000000000000000000000000000000000000000000000000600052603260045260246000fd5b906000526020600020906004020160010160009054906101000a900473ffffffffffffffffffffffffffffffffffffffff16905060008060006041865114610728576040517f08c379a000000000000000000000000000000000000000000000000000000000815260040161071f9061161c565b60405180910390fd5b6020860151925060408601519150606086015160001a905060006001888386866040516000815260200160405260405161076594939291906114ab565b6020604051602081039080840390855afa158015610787573d6000803e3d6000fd5b5050506020604051035190508473ffffffffffffffffffffffffffffffffffffffff168173ffffffffffffffffffffffffffffffffffffffff1614955050505050509392505050565b600260009054906101000a900473ffffffffffffffffffffffffffffffffffffffff1673ffffffffffffffffffffffffffffffffffffffff163373ffffffffffffffffffffffffffffffffffffffff1614610860576040517f08c379a0000000000000000000000000000000000000000000000000000000008152600401610857906115fc565b60405180910390fd5b60008054905083106108a7576040517f08c379a000000000000000000000000000000000000000000000000000000000815260040161089e906115dc565b60405180910390fd5b6108b2838383610628565b6108f1576040517f08c379a00000000000000000000000000000000000000000000000000000000081526004016108e8906115bc565b60405180910390fd5b60016000848154811061092d577f4e487b7100000000000000000000000000000000000000000000000000000000600052603260045260246000fd5b906000526020600020906004020160030160006101000a81548160ff021916908315150217905550827fdeeef653c19b6a9a81f102aaca75dafaec08f04bf6ccfb7d7887c93f19cccc45336040516109859190611443565b60405180910390a2505050565b60008054905083106109d9576040517f08c379a00000000000000000000000000000000000000000000000000000000081526004016109d0906115dc565b60405180910390fd5b6000808481548110610a14577f4e487b7100000000000000000000000000000000000000000000000000000000600052603260045260246000fd5b906000526020600020906004020190508060010160009054906101000a900473ffffffffffffffffffffffffffffffffffffffff1673ffffffffffffffffffffffffffffffffffffffff163373ffffffffffffffffffffffffffffffffffffffff1614610ab6576040517f08c379a0000000000000000000000000000000000000000000000000000000008152600401610aad9061159c565b60405180910390fd5b8282600160008781526020019081526020016000209190610ad8929190610dcc565b50837faa6a08a7c202a1c81bdc5d775a2481b20ecf6780ddca3629d8dcbc1c9208ac8a8260010160009054906101000a900473ffffffffffffffffffffffffffffffffffffffff168585604051610b319392919061145e565b60405180910390a250505050565b60016020528060005260406000206000915090508054610b5e906117f4565b80601f0160208091040260200160405190810160405280929190818152602001828054610b8a906117f4565b8015610bd75780601f10610bac57610100808354040283529160200191610bd7565b820191906000526020600020905b815481529060010190602001808311610bba57829003601f168201915b505050505081565b60008181548110610bef57600080fd5b9060005260206000209060040201600091509050806000018054610c12906117f4565b80601f0160208091040260200160405190810160405280929190818152602001828054610c3e906117f4565b8015610c8b5780601f10610c6057610100808354040283529160200191610c8b565b820191906000526020600020905b815481529060010190602001808311610c6e57829003601f168201915b5050505050908060010160009054906101000a900473ffffffffffffffffffffffffffffffffffffffff16908060020154908060030160009054906101000a900460ff16905084565b60008080549050905090565b600260009054906101000a900473ffffffffffffffffffffffffffffffffffffffff1681565b604051806080016040528060608152602001600073ffffffffffffffffffffffffffffffffffffffff168152602001600081526020016000151581525090565b828054610d52906117f4565b90600052602060002090601f016020900481019282610d745760008555610dbb565b82601f10610d8d57805160ff1916838001178555610dbb565b82800160010185558215610dbb579182015b82811115610dba578251825591602001919060010190610d9f565b5b509050610dc89190610e52565b5090565b828054610dd8906117f4565b90600052602060002090601f016020900481019282610dfa5760008555610e41565b82601f10610e1357803560ff1916838001178555610e41565b82800160010185558215610e41579182015b82811115610e40578235825591602001919060010190610e25565b5b509050610e4e9190610e52565b5090565b5b80821115610e6b576000816000905550600101610e53565b5090565b6000610e82610e7d846116aa565b611679565b905082815260208101848484011115610e9a57600080fd5b610ea58482856117b2565b509392505050565b6000610ec0610ebb846116da565b611679565b905082815260208101848484011115610ed857600080fd5b610ee38482856117b2565b509392505050565b600081359050610efa81611895565b92915050565b600081359050610f0f816118ac565b92915050565b60008083601f840112610f2757600080fd5b8235905067ffffffffffffffff811115610f4057600080fd5b602083019150836001820283011115610f5857600080fd5b9250929050565b600082601f830112610f7057600080fd5b8135610f80848260208601610e6f565b91505092915050565b600082601f830112610f9a57600080fd5b8135610faa848260208601610ead565b91505092915050565b600081359050610fc2816118c3565b92915050565b60008060408385031215610fdb57600080fd5b600083013567ffffffffffffffff811115610ff557600080fd5b61100185828601610f89565b925050602061101285828601610eeb565b9150509250929050565b60006020828403121561102e57600080fd5b600061103c84828501610fb3565b91505092915050565b60008060006060848603121561105a57600080fd5b600061106886828701610fb3565b935050602061107986828701610f00565b925050604084013567ffffffffffffffff81111561109657600080fd5b6110a286828701610f5f565b9150509250925092565b6000806000604084860312156110c157600080fd5b60006110cf86828701610fb3565b935050602084013567ffffffffffffffff8111156110ec57600080fd5b6110f886828701610f15565b92509250509250925092565b61110d81611753565b82525050565b61111c81611753565b82525050565b61112b81611765565b82525050565b61113a81611765565b82525050565b61114981611771565b82525050565b600061115b8385611720565b93506111688385846117b2565b61117183611884565b840190509392505050565b60006111878261170a565b6111918185611720565b93506111a18185602086016117c1565b6111aa81611884565b840191505092915050565b60006111c082611715565b6111ca8185611731565b93506111da8185602086016117c1565b6111e381611884565b840191505092915050565b60006111f982611715565b6112038185611742565b93506112138185602086016117c1565b61121c81611884565b840191505092915050565b6000611234602283611742565b91507f4f6e6c7920746865206f776e65722063616e207369676e20746865207265636f60008301527f72640000000000000000000000000000000000000000000000000000000000006020830152604082019050919050565b600061129a601183611742565b91507f496e76616c6964207369676e61747572650000000000000000000000000000006000830152602082019050919050565b60006112da601583611742565b91507f5265636f726420646f6573206e6f7420657869737400000000000000000000006000830152602082019050919050565b600061131a602283611742565b91507f4f6e6c792061646d696e2063616e20706572666f726d2074686973206163746960008301527f6f6e0000000000000000000000000000000000000000000000000000000000006020830152604082019050919050565b6000611380601883611742565b91507f496e76616c6964207369676e6174757265206c656e67746800000000000000006000830152602082019050919050565b600060808301600083015184820360008601526113d082826111b5565b91505060208301516113e56020860182611104565b5060408301516113f86040860182611416565b50606083015161140b6060860182611122565b508091505092915050565b61141f8161179b565b82525050565b61142e8161179b565b82525050565b61143d816117a5565b82525050565b60006020820190506114586000830184611113565b92915050565b60006040820190506114736000830186611113565b818103602083015261148681848661114f565b9050949350505050565b60006020820190506114a56000830184611131565b92915050565b60006080820190506114c06000830187611140565b6114cd6020830186611434565b6114da6040830185611140565b6114e76060830184611140565b95945050505050565b6000602082019050818103600083015261150a818461117c565b905092915050565b6000606082019050818103600083015261152c81866111ee565b905061153b6020830185611113565b6115486040830184611425565b949350505050565b6000608082019050818103600083015261156a81876111ee565b90506115796020830186611113565b6115866040830185611425565b6115936060830184611131565b95945050505050565b600060208201905081810360008301526115b581611227565b9050919050565b600060208201905081810360008301526115d58161128d565b9050919050565b600060208201905081810360008301526115f5816112cd565b9050919050565b600060208201905081810360008301526116158161130d565b9050919050565b6000602082019050818103600083015261163581611373565b9050919050565b6000602082019050818103600083015261165681846113b3565b905092915050565b60006020820190506116736000830184611425565b92915050565b6000604051905081810181811067ffffffffffffffff821117156116a05761169f611855565b5b8060405250919050565b600067ffffffffffffffff8211156116c5576116c4611855565b5b601f19601f8301169050602081019050919050565b600067ffffffffffffffff8211156116f5576116f4611855565b5b601f19601f8301169050602081019050919050565b600081519050919050565b600081519050919050565b600082825260208201905092915050565b600082825260208201905092915050565b600082825260208201905092915050565b600061175e8261177b565b9050919050565b60008115159050919050565b6000819050919050565b600073ffffffffffffffffffffffffffffffffffffffff82169050919050565b6000819050919050565b600060ff82169050919050565b82818337600083830152505050565b60005b838110156117df5780820151818401526020810190506117c4565b838111156117ee576000848401525b50505050565b6000600282049050600182168061180c57607f821691505b602082108114156118205761181f611826565b5b50919050565b7f4e487b7100000000000000000000000000000000000000000000000000000000600052602260045260246000fd5b7f4e487b7100000000000000000000000000000000000000000000000000000000600052604160045260246000fd5b6000601f19601f8301169050919050565b61189e81611753565b81146118a957600080fd5b50565b6118b581611771565b81146118c057600080fd5b50565b6118cc8161179b565b81146118d757600080fd5b5056fea2646970667358221220d09c98fe96e8c4e63043c92e451a9bd0a81d97bba131fb1ebbe97611bbb5070264736f6c63430008000033",
  "immutableReferences": {},
  "source": "// SPDX-License-Identifier: MIT\npragma solidity ^0.8.0;\n\ncontract LandRecord {\n    struct LandRecordStruct {\n        string documentHash; // (for example, a hash of the land document)\n        address owner;       // (the owner's address)\n        uint256 timestamp;   // (when the record was created)\n        bool isVerified;     // (whether the record is verified)\n    }\n\n    // An array of LandRecordStructs (indexed by recordId)\n    LandRecordStruct[] public landRecords;\n\n    // A mapping (recordId => signature) (so that a record can be \"signed\" (by the owner) (using a signature (bytes) computed off-chain (for example, using ethers.js) and stored (via a new function signRecord(uint256 _recordId, bytes calldata _signature) (which reverts if the record does not exist or if the caller is not the owner)). (Note: This update does not use OpenZeppelin.)\n    mapping(uint256 => bytes) public signatures;\n\n    address public admin;\n\n    // Event emitted when a new record is created (with recordId, documentHash, owner, and timestamp)\n    event RecordCreated(uint256 indexed recordId, string documentHash, address owner, uint256 timestamp);\n\n    // Event emitted when a record is \"signed\" (with recordId, owner, and signature (bytes) (for an applied cryptography project) (so that a record can be \"signed\" (by the owner) (using a signature (bytes) computed off-chain (for example, using ethers.js) and stored (via a new function signRecord(uint256 _recordId, bytes calldata _signature) (which reverts if the record does not exist or if the caller is not the owner)). (Note: This update does not use OpenZeppelin.)\n    event RecordSigned(uint256 indexed recordId, address owner, bytes signature);\n\n    event RecordVerified(uint256 indexed recordId, address admin);\n\n    modifier onlyAdmin() {\n        require(msg.sender == admin, \"Only admin can perform this action\");\n        _;\n    }\n\n    constructor() {\n        admin = msg.sender;\n    }\n\n    // Function to create a new land record (takes a document hash and an owner address, then pushes a new LandRecordStruct (with isVerified set to false) into landRecords and emits a RecordCreated event)\n    function createRecord(string memory _documentHash, address _owner) public returns (uint256) {\n        uint256 recordId = landRecords.length;\n        LandRecordStruct memory newRecord = LandRecordStruct({\n            documentHash: _documentHash,\n            owner: _owner,\n            timestamp: block.timestamp,\n            isVerified: false\n        });\n        landRecords.push(newRecord);\n        emit RecordCreated(recordId, _documentHash, _owner, block.timestamp);\n        return recordId;\n    }\n\n    // Function to retrieve a land record (by recordId) (returns the LandRecordStruct (or reverts if the recordId is out of bounds)\n    function getRecord(uint256 _recordId) public view returns (LandRecordStruct memory) {\n        require(_recordId < landRecords.length, \"Record does not exist\");\n        return landRecords[_recordId];\n    }\n\n    // Function to return the total number of land records (i.e. landRecords.length)\n    function getRecordCount() public view returns (uint256) {\n        return landRecords.length;\n    }\n\n    // New function (for an applied cryptography project) (so that a record can be \"signed\" (by the owner) (using a signature (bytes) computed off-chain (for example, using ethers.js) and stored (via a new function signRecord(uint256 _recordId, bytes calldata _signature) (which reverts if the record does not exist or if the caller is not the owner)). (Note: This update does not use OpenZeppelin.)\n    function signRecord(uint256 _recordId, bytes calldata _signature) public {\n        require(_recordId < landRecords.length, \"Record does not exist\");\n        LandRecordStruct storage record = landRecords[_recordId];\n        require(msg.sender == record.owner, \"Only the owner can sign the record\");\n        signatures[_recordId] = _signature;\n        emit RecordSigned(_recordId, record.owner, _signature);\n    }\n\n    // New function (for an applied cryptography project) (so that a record's signature (bytes) (computed off-chain (for example, using ethers.js) and stored (via a new function signRecord(uint256 _recordId, bytes calldata _signature) (which reverts if the record does not exist or if the caller is not the owner)) (can be retrieved (or reverts if the record does not exist)). (Note: This update does not use OpenZeppelin.)\n    function getSignature(uint256 _recordId) public view returns (bytes memory) {\n        require(_recordId < landRecords.length, \"Record does not exist\");\n        return signatures[_recordId];\n    }\n\n    // On-chain signature verification\n    function verifySignature(uint256 _recordId, bytes32 _messageHash, bytes memory _signature) public view returns (bool) {\n        require(_recordId < landRecords.length, \"Record does not exist\");\n        address owner = landRecords[_recordId].owner;\n        bytes32 r;\n        bytes32 s;\n        uint8 v;\n        require(_signature.length == 65, \"Invalid signature length\");\n        assembly {\n            r := mload(add(_signature, 32))\n            s := mload(add(_signature, 64))\n            v := byte(0, mload(add(_signature, 96)))\n        }\n        address recovered = ecrecover(_messageHash, v, r, s);\n        return (recovered == owner);\n    }\n\n    // Admin-only: verify a record after checking the signature\n    function verifyRecord(uint256 _recordId, bytes32 _messageHash, bytes memory _signature) public onlyAdmin {\n        require(_recordId < landRecords.length, \"Record does not exist\");\n        require(verifySignature(_recordId, _messageHash, _signature), \"Invalid signature\");\n        landRecords[_recordId].isVerified = true;\n        emit RecordVerified(_recordId, msg.sender);\n    }\n} ",
  "sourcePath": "/Users/mehar/Desktop/BLOCKCHAIN EL/smart-contracts/contracts/LandRecord.sol",
  "compiler": {
    "name": "solc",
    "version": "0.8.0+commit.c7dfd78e.Emscripten.clang"
  },
  "schemaVersion": "3.4.16",
  "updatedAt": "2025-06-15T13:11:46.644Z",
  "devdoc": {
    "kind": "dev",
    "methods": {},
    "version": 1
  },
  "userdoc": {
    "kind": "user",
    "methods": {},
    "version": 1
  }
}